:020000040800F2
:10000000781100202D0700088907000889070008DB
:100010008907000889070008890700080000000018
:100020000000000000000000000000008907000838
:10003000890700080000000089070008090E000871
:100040008907000889070008890700088907000850
:100050008907000889070008890700088907000840
:10006000890700088907000889070008AD0600080D
:100070008907000889070008890700088907000820
:100080008907000889070008890700088907000810
:100090008907000889070008890700088907000800
:1000A00089070008890700088907000889070008F0
:1000B00089070008890700088907000889070008E0
:1000C00089070008890700088907000889070008D0
:1000D00089070008890700088907000889070008C0
:1000E00089070008890700088907000889070008B0
:1000F000890700088907000889070008A106000889
:10010000890700088907000889070008B906000860
:10011000890700088907000889070008890700087F
:10012000890700088907000889070008890700086F
:10013000890700088907000889070008890700085F
:10014000890700088907000889070008890700084F
:10015000890700088907000889070008890700083F
:10016000890700088907000889070008890700082F
:10017000890700088907000889070008890700081F
:10018000890700088907000880B485B000AF78604F
:10019000104B1A687B6802FB03F3FB600E4B1A6876
:1001A0000E4B9A4204D00C4B1A680D4B9A4205D163
:1001B000084B1B68FA68D31AFB60FFE700BFFB68B7
:1001C0005A1EFA60002BFAD11437BD465DF8047B45
:1001D000704700BF74090020340000200095BA0A5F
:1001E00000E1F50580B582B000AF02460B46FA711A
:1001F000BB7100F079FE00F05BF84AF6C870FFF7BB
:10020000C3FF2A4BBA79DA70284BFA791A71274B57
:1002100000225A71254B00229A71244B00225A70F9
:10022000BB79012B06D9214B5B7843F00803DAB286
:100230001E4B5A70032000F0CFF841F29410FFF7E4
:10024000A3FF032000F0C8F841F29410FFF79CFFD1
:10025000032000F0C1F841F29410FFF795FF02204F
:1002600000F0BAF86420FFF78FFF104B5B7843F083
:100270002003DBB2184600F07BF80C4B04221A7006
:1002800000F07EF900F06AF8084B02229A70074BE2
:100290009B7843F00403DBB2184600F069F841F2A2
:1002A0009410FFF771FF0837BD4680BDF0080020AD
:1002B00080B582B002AF002300930023019326484B
:1002C00010210122002301F039F8002300930023BC
:1002D0000193214820210122002301F02FF800235F
:1002E0000093002301931C4801210122002301F007
:1002F00025F80023009300230193174802210122CF
:10030000002301F01BF800230093002301931248FF
:1003100004210122002301F011F80023009300239F
:1003200001930D4808210122002301F007F80A4B30
:1003300010225A83084B20225A83074B01225A83EA
:10034000054B02225A83044B04225A83024B082293
:100350005A83BD4680BD00BF0010024080B500AF8B
:10036000012000F005F840F6B830FFF70DFF80BD22
:1003700080B582B000AF0346FB71094B10225A834F
:10038000FB791B09DBB2184600F026F8FB7903F075
:100390000F03DBB2184600F01FF80837BD4680BDDA
:1003A0000010024080B582B000AF0346FB71094BDC
:1003B00010221A83FB791B09DBB2184600F00CF8F7
:1003C000FB7903F00F03DBB2184600F005F808379D
:1003D000BD4680BD0010024080B582B000AF03462C
:1003E000FB71FB7903F00803002B03D01C4B0822A0
:1003F0001A8302E01A4B08225A83FB7903F00403A4
:10040000002B03D0164B04221A8302E0144B042263
:100410005A83FB7903F00203002B03D0104B022216
:100420001A8302E00E4B02225A83FB7903F0010388
:10043000002B03D00A4B01221A8302E0084B012251
:100440005A83074B20221A831420FFF79DFE044B8A
:1004500020225A831420FFF797FE0837BD4680BD3F
:100460000010024080B584B000AF02460B46FA711E
:10047000BB71134A07F10C0310681860114BDB784D
:10048000BA799A4201D30023BB710E4BFA795A71A3
:100490000C4BBA799A71BB7907F11002134413F827
:1004A000042CFB791344DBB2DBB263F07F03DBB2D5
:1004B000DBB21846FFF75CFF1037BD4680BD00BFBA
:1004C000F02A0008F008002080B582B000AF0B468B
:1004D0003A600246FA71BB71FA79BB791046194647
:1004E000FFF7C0FF42E0254B5A79244B1B799A4213
:1004F00010D3224B00225A71204B9B790133DAB280
:100500001E4B9A711D4B5A791C4B9B79104619460C
:10051000FFF7A8FF3B681B780A2B0ED1174B9B797E
:100520000133DAB2154B9A71144B5A79134B9B79FC
:1005300010461946FFF796FF15E03B681B780D2B18
:1005400006D10E4B9B7900201946FFF78BFF0AE07E
:100550003B681B781846FFF725FF084B5B79013392
:10056000DAB2064B5A713B6801333B603B681B783B
:10057000002BB8D10837BD4680BD00BFF008002071
:1005800080B500AF074B1B7843F00403DAB2054B8C
:100590001A70044B1B7843F00803DBB21846FFF7D0
:1005A000E7FE80BDF008002080B500AF374B1A6829
:1005B000374B1B681046194600F01AFE0346002B05
:1005C00062D0344B1B68002B4AD000BF2F4B1B68F6
:1005D000184600F0F5FD0346002BF7D12B4B1A68A7
:1005E0002B4B1B681046194600F03EFE2A4B1B6839
:1005F0001A462A4B9A60274B1A684FF6FF739A42A5
:1006000028BF1A46254B1A61204B1B681846234900
:1006100000F064FD1D4B1B681846012100F0B4FD7D
:100620001D4B1A681B4B19684FF6FF73994238BF70
:100630000B465B001A44184B1A60164B1A68154B90
:1006400019684FF6FF73994238BF0B46D21A114B07
:100650001A600E4B1B681846012100F095FD13E04F
:100660000A4B1B681846002100F08EFD074B1A68E4
:10067000074B1B681046194600F0F6FD064B1B6839
:100680001846002100F01EFE80BD00BF14000020AF
:100690002000002004000020F80800203809002075
:1006A00080B500AFFFF780FF80BD00BF80B500AF11
:1006B000FFF77AFF80BD00BF80B500AF0C48022174
:1006C00000F020FE0346002B11D00A4B1B68022BC2
:1006D00006D100F001FE03460420194600F00CF894
:1006E00000F0FAFD03460248194600F0FDFD80BD0A
:1006F000003C00400C00002080B485B000AF786062
:100700000B467B800023FB60074BFB60FA687B682D
:1007100013440833FB60FB687A881A601437BD46BF
:100720005DF8047B704700BF0074004080B582B064
:1007300000AF104B7B60104B3B6007E03B681A1D1D
:100740003A607A68111D796012681A603A680B4B3A
:100750009A42F3D30A480B494FF000028842B8BFCF
:1007600040F8042BFFF6FAAF00F00EF90837BD464B
:1007700080BD00BF0C2B0008000000208408002072
:10078000840800207809002080B400AFFEE700BF95
:1007900080B485B000AF7860074B1B68FB6000BF7A
:1007A000054B1A68FB68D21A7B689A42F8D3143753
:1007B000BD465DF8047B70479408002080B487B084
:1007C00000AF7860396000237B613B68013B3B618F
:1007D00018E07B697A6813441B78FB607B697A6850
:1007E00013443A6979680A4412781A703B697A6846
:1007F0001344FA68D2B21A707B6901337B613B699A
:10080000013B3B617A693B699A42E2DB1C37BD469A
:100810005DF8047B704700BF80B586B000AFF8601C
:10082000B9607A6000237B611CE07B695A1C7A61A5
:10083000BA68D018F9681A4B83FB01239A10CB17BA
:10084000D21A13469B0013445B00CA1AD3B230334A
:10085000DBB20370FB68124A82FB03129210DB17B3
:10086000D31AFB60FB68002BDFD106E07B695A1CC2
:100870007A61BA68134430221A707A697B689A42A6
:10088000F4DBB8687969FFF799FF7B69BA681344AC
:1008900000221A707B6918461837BD4680BD00BF1C
:1008A0006766666680B584B000AF786039603B6883
:1008B000002B01D1012320E03B68012B01D17B6893
:1008C0001BE03B685B08FB60FB6878681946FFF734
:1008D000E9FFB860FA68FB6813441A463B689A421D
:1008E00004D1BB68BA6802FB03F306E0BB68BA68D0
:1008F00002FB03F37A6802FB03F318461037BD4688
:1009000080BD00BF80B588B000AFF860B9607A6084
:10091000F86801F0FDFC0346FB61F86901F0DEFABE
:100920000346F868194601F023FA0346BB61F869EB
:10093000B9680022FFF770FF78617B68002B20D038
:100940007B69BA6813442E221A7078680A21FFF76F
:10095000A9FF0346184601F0C1FA0346B8691946D3
:1009600001F010FB0346BB61B86901F0D1FC0246FF
:100970007B690133B9680B44104619467A68FFF762
:100980004BFF2037BD4680BD80B590B002AF00F070
:10099000D1FA10200221FFF725FCFFF7DFFC1F48EA
:1009A000012101221E4B00F0ABF8052000211D4A59
:1009B000FFF78AFD4FF47A70FFF7EAFEFFF7CEFCEF
:1009C00040F2DC537B634FF000033B630023FB6288
:1009D00007F118034FF480420092184612494FF471
:1009E0000042114B00F014F907F11803184600F00B
:1009F0005BF938633B1D386B19460222FFF782FF13
:100A0000FFF7ACFC3B1D002000211A46FFF75CFD00
:100A10004FF4FA70FFF7BCFEDAE700BF00000240B7
:100A20002D0A0008F42A00080008024080B582B0B0
:100A300000AF0346FB71FB79002B0CD0FB79012B37
:100A400007D1064B01221A600A20012100F008F8A4
:100A500001E0FFF799FF0837BD4680BD84080020FC
:100A600080B590B002AF786039604FF000037B63CF
:100A700000233B6307F11C034FF4804200921846A9
:100A80001E494FF400421D4B00F0C2F84FF0000326
:100A90007B6300233B630EE007F11C03184600F064
:100AA00003F90346786B194601F064F903467B634A
:100AB0003B6B01333B633A6B7B689A42ECDB7868B3
:100AC00001F00CFA0346786B194601F00FFB034660
:100AD0007B6307F10803786B19463A68FFF712FF4A
:100AE000FFF73CFC07F10803002000211A46FFF73E
:100AF000EBFC4FF4FA70FFF74BFEC7E7000802402B
:100B000080B588B002AFF8607B600B467B811346EE
:100B10007B7200F0E9F9264B9B88002B01D0002363
:100B200042E0182001F020FC03463B613B69002BAA
:100B300001D1002338E03B69FA681A603B697A8981
:100B40009A807B7A002B0CBF00230123DBB21A466C
:100B50003B699A713B697A689A603B6964225A8260
:100B60003B6940F6B8329A823B699B79002B02D0F0
:100B70000223FB7501E00123FB757B89FA7D00925E
:100B800000220192F86819460022002300F0D6FBEB
:100B9000074B9B885A1C91B2054A91801A46044B18
:100BA000396943F822103B6918461837BD4680BDA5
:100BB0008808002080B485B000AF7860104B1A68B8
:100BC0007B6802FB03F3FB600E4B1A680E4B9A42E4
:100BD00004D00C4B1A680D4B9A4205D1084B1B6888
:100BE000FA68D31AFB60FFE700BFFB685A1EFA6081
:100BF000002BFAD11437BD465DF8047B704700BF67
:100C000074090020340000200095BA0A00E1F505BF
:100C100080B586B002AFF860B9603B601346FB80D8
:100C200000F062F9FB68BA685A60FB68FA881A81BA
:100C3000FB683A68DA60FB683A8B1A82FB68DA680C
:100C4000FB681B8A0221009101210191104619467F
:100C50000122002300F072FBFB685A68FB681B89C5
:100C60000221009101210191104619460022002322
:100C700000F064FBFB68DB68FA68128A5A83F86844
:100C800000F012F8034618464FF0000101F02CFB6B
:100C90000346002B01D0012300E000231846103743
:100CA000BD4680BD0000000080B584B000AF786014
:100CB0007B68DB687A68128A5A830220FFF77AFF22
:100CC0007B68DB687A68128A1A830A20FFF772FF52
:100CD0007B68DB687A68128A5A83234BBB6006E024
:100CE000BB685A1EBA60002B01D1204B33E07B68F1
:100CF0005B681A697B681B891340002BF0D00023C6
:100D0000FB6005E0FB680133FB600120FFF752FF49
:100D10007B685B681A697B681B891340002BF1D1E3
:100D2000F86801F0D7F80346184600F067FD024660
:100D30000B46104619460AA3D3E9002300F0B2FD82
:100D400002460B461046194600F0BEFF02467B687D
:100D50001A607B681B6818461037BD4680BD00BF0F
:100D60000000002835CBB33F40420F00000080BF99
:100D700080B483B000AF03463960FB7197F9073048
:100D8000002B0BDA0D49FB7903F00F03043B3A68A3
:100D9000D2B21201D2B20B441A7609E0084997F98F
:100DA00007303A68D2B21201D2B20B4483F8002362
:100DB0000C37BD465DF8047B704700BF00ED00E0D6
:100DC00000E100E080B582B000AF78607B68B3F1ED
:100DD000807F01D3012311E00A4B7A6822F07F4221
:100DE000013A5A604FF0FF300F21FFF7C1FF054B6A
:100DF00000229A60034B07221A6000231846083726
:100E0000BD4680BD10E000E080B582B000AF334B3E
:100E10001B685A1C314B1A60314B1B68002B04D0E5
:100E20002F4B1B685A1E2E4B1A60AFF30080002315
:100E3000FB714BE0FB792B4A9B0013445B68002B52
:100E400041D0FB79274A9B0013445B681B7B002B36
:100E500039D0FB79234A9B0013445B689B68002BC5
:100E600031D0FB791F4A9B0013445B689A68013AB2
:100E70009A60FB791B4A9B0013445B689B68002BBC
:100E800021D1FB79174A9B0013445B681B69984783
:100E9000FB79144A9B0013445A68FB7911499B0063
:100EA0000B445B681B689360FB790E4A9B001344FC
:100EB0005B685B68002B06D1FB790A4A9B001344F0
:100EC0005B6800221A73FB790133FB71054B1B78B9
:100ED000FA799A42AED30837BD4680BD9408002007
:100EE00098080020A008002080B500AF0C4B1A68BD
:100EF0000C4BA3FB02139B091846FFF763FF034645
:100F0000002B00D0FEE7064B1B689A09064BA3FB9B
:100F100002139A0A054B1A60054B01221A7080BD14
:100F200034000020D34D621017916502740900202F
:100F30009C08002080B500AF114B114A126842F0A6
:100F400001021A600E4B00229A600D4A0C4B1B687E
:100F500023F0847323F480331360094B094A5A60E9
:100F6000074B074A126822F480221A60044B0022C1
:100F7000DA6000F00BF8044B4FF000629A6080BD1D
:100F8000003802401030002400ED00E080B483B04F
:100F900000AF00237B6000233B60354B344A12686E
:100FA00042F480321A60324B1B6803F400333B601A
:100FB0007B6801337B603B68002B03D17B68B3F512
:100FC000A06FF0D12A4B1B6803F40033002B02D032
:100FD00001233B6001E000233B603B68012B42D1D1
:100FE000234B234A126C42F080521A64214B214A4F
:100FF000126842F480421A601D4B1D4A92689A6042
:101000001B4B1B4A926842F400429A60184B184AE4
:10101000926842F4A0529A60154B174A5A60144BDA
:10102000134A126842F080721A6000BF104B1B68AE
:1010300003F00073002BF9D0104B40F205621A60E8
:101040000B4B0B4A926822F003029A60084B084A45
:10105000926842F002029A6000BF054B9B6803F061
:101060000C03082BF9D10C37BD465DF8047B7047A3
:10107000003802400070004019544007003C024014
:1010800080B584B000AF78603960124B1B68002BCC
:1010900002D1104B104A1A600E4B1B68FB600D4BBF
:1010A0001A683B681A446B469A4207D901F056F910
:1010B00003460C221A604FF0FF3306E0054B1A6816
:1010C0003B681A44034B1A60FB6818461037BD464C
:1010D00080BD00BFB80800207809002080B485B02A
:1010E00000AF786039600023FB607B681B68FB60A1
:1010F000FA68244B1340FB603B681A683B68DB6866
:101100001A433B685B691A433B689B691A433B6817
:10111000DB691A433B681B6A1A433B685B6A1A43E4
:101120003B689B6A1A433B685B6B1A433B689B6B4B
:101130001343FA681343FB607B68FA681A607B68A4
:101140005B69FB60FB6823F00703FB603B68DA6ABE
:101150003B681B6B1343FA681343FB607B68FA68B8
:101160005A613B681A697B685A603B685A687B68B9
:101170009A603B689A687B68DA601437BD465DF810
:10118000047B70473F801CF080B483B000AF786070
:101190000B46FB70FB78002B06D07B681B6843F086
:1011A00001027B681A6005E07B681B6823F001027E
:1011B0007B681A600C37BD465DF8047B704700BF42
:1011C00080B485B000AF78600023FB737B681B6838
:1011D00003F00103002B02D00123FB7301E0002385
:1011E000FB73FB7B18461437BD465DF8047B7047E4
:1011F00080B487B000AF786039600023FB750023AE
:10120000FB607A68154B9A4202D8154B3B6101E0AE
:10121000144B3B613B6803F00053002B03D03B6948
:101220005B68FB6002E03B691B68FB60FB6823F0C6
:10123000F02323F08213FB60FA683B681340002B15
:1012400002D00123FB7501E00023FB75FB7D1846EE
:101250001C37BD465DF8047B704700BF0F64024039
:10126000006002400064024080B485B000AF786046
:1012700039607A68104B9A4202D8104BFB6001E04B
:101280000F4BFB603B6803F00053002B07D03B681B
:1012900023F0F02323F08213FA68D36006E03B6862
:1012A00023F0F02323F08213FA6893601437BD46CD
:1012B0005DF8047B704700BF0F640240006002408D
:1012C0000064024080B483B000AF786039600C37AE
:1012D000BD465DF8047B704780B400AF002318461C
:1012E000BD465DF8047B704780B483B000AF786082
:1012F0000B467B807B687A889A810C37BD465DF807
:10130000047B704780B485B000AF78600B467B806B
:101310000023FB737B681B899AB27B8813409BB2C6
:10132000002B02D00123FB7301E00023FB73FB7B46
:1013300018461437BD465DF8047B704780B584B00D
:1013400002AF786079807A703B707B88002B00D187
:101350000CE0786800F00EF879887A783B78387C71
:101360000090387D0190786800F07CF80837BD4621
:1013700080BD00BF80B483B000AF78607A682F4B27
:101380009A4205D12E4B2E4A126B42F001021A638B
:101390007A682C4B9A4205D1294B294A126B42F0AC
:1013A00002021A637A68284B9A4205D1244B244AD8
:1013B000126B42F004021A637A68244B9A4205D1F8
:1013C0001F4B1F4A126B42F008021A637A68204BC7
:1013D0009A4205D11A4B1A4A126B42F010021A6354
:1013E0007A681C4B9A4205D1154B154A126B42F094
:1013F00020021A637A68184B9A4205D1104B104AA2
:10140000126B42F040021A637A68144B9A4205D17B
:101410000B4B0B4A126B42F080021A637A68104B36
:101420009A4205D1064B064A126B42F480721A6347
:101430000C37BD465DF8047B704700BF00000240DA
:10144000003802400004024000080240000C024044
:10145000001002400014024000180240001C02402C
:101460000020024080B485B000AF786079807A7047
:101470003B700023FB7355E07A88FB7B42FA03F351
:1014800003F00103002B00D149E07B681A68FB7B65
:101490005B00032101FA03F3DB431A407978FB7BFD
:1014A0005B0001FA03F31A437B681A607B78012B17
:1014B00002D07B78022B21D17B685A68FB7B01210B
:1014C00001FA03F39BB2DB431A403978FB7B01FA44
:1014D00003F39BB21A437B685A607B689A68FB7B74
:1014E0005B00032101FA03F3DB431A40397FFB7BE6
:1014F0005B0001FA03F31A437B689A607B68DA6841
:10150000FB7B5B00032101FA03F3DB431A40397EC6
:10151000FB7B5B0001FA03F31A437B68DA60FB7B19
:101520000133FB73FB7B0F2BA6D91437BD465DF847
:10153000047B704781F0004102E000BF83F000436C
:1015400030B54FEA41044FEA430594EA050F08BF5E
:1015500090EA020F1FBF54EA000C55EA020C7FEA22
:10156000645C7FEA655C00F0E2804FEA5454D4EB9F
:101570005555B8BF6D420CDD2C4480EA020281EA69
:10158000030382EA000083EA010180EA020281EAA1
:101590000303362D88BF30BD11F0004F4FEA0131F3
:1015A0004FF4801C4CEA113102D0404261EB410102
:1015B00013F0004F4FEA03334CEA133302D0524288
:1015C00063EB430394EA050F00F0A780A4F1010444
:1015D000D5F1200E0DDB02FA0EFC22FA05F280187E
:1015E00041F1000103FA0EF2801843FA05F3594164
:1015F0000EE0A5F120050EF1200E012A03FA0EFCE3
:1016000028BF4CF0020C43FA05F3C01851EBE3710C
:1016100001F0004507D54FF0000EDCF1000C7EEB29
:1016200000006EEB0101B1F5801F1BD3B1F5001F67
:101630000CD349085FEA30004FEA3C0C04F1010486
:101640004FEA445212F5800F80F09A80BCF1004FAF
:1016500008BF5FEA500C50F1000041EB045141EA31
:10166000050130BD5FEA4C0C404141EB010111F432
:10167000801FA4F10104E9D191F0000F04BF0146DD
:101680000020B1FA81F308BF2033A3F10B03B3F1BB
:1016900020020CDA0C3208DD02F1140CC2F10C024B
:1016A00001FA0CF021FA02F10CE002F11402D8BFA9
:1016B000C2F1200C01FA02F120FA0CFCDCBF41EA75
:1016C0000C019040E41AA2BF01EB0451294330BD44
:1016D0006FEA04041F3C1CDA0C340EDC04F1140421
:1016E000C4F1200220FA04F001FA02F340EA0300F8
:1016F00021FA04F345EA030130BDC4F10C04C4F13E
:10170000200220FA02F001FA04F340EA030029461D
:1017100030BD21FA04F0294630BD94F0000F83F467
:10172000801306BF81F480110134013D4EE77FEA4A
:10173000645C18BF7FEA655C29D094EA050F08BF96
:1017400090EA020F05D054EA000C04BF1946104677
:1017500030BD91EA030F1EBF0021002030BD5FEABB
:10176000545C05D14000494128BF41F0004130BDE3
:1017700014F580043CBF01F5801130BD01F0004537
:1017800045F0FE4141F470014FF0000030BD7FEAAA
:10179000645C1ABF194610467FEA655C1CBF0B46A5
:1017A000024650EA013406BF52EA033591EA030FBC
:1017B00041F4002130BD00BF90F0000F04BF0021B4
:1017C000704730B54FF4806404F132044FF00005E7
:1017D0004FF0000150E700BF90F0000F04BF002160
:1017E000704730B54FF4806404F1320410F00045C6
:1017F00048BF40424FF000013EE700BF42004FEAC1
:10180000E2014FEA31014FEA02701FBF12F07F433D
:1018100093F07F4F81F06051704792F0000F14BF3A
:1018200093F07F4F704730B54FF4607401F000457E
:1018300021F0004120E700BF50EA010208BF7047D5
:1018400030B54FF000050AE050EA010208BF7047CA
:1018500030B511F0004502D5404261EB41014FF433
:10186000806404F132045FEA915C3FF4DCAE4FF037
:1018700003025FEADC0C18BF03325FEADC0C18BF1E
:10188000033202EBDC02C2F1200300FA03FC20FA6F
:1018900002F001FA03FE40EA0E0021FA02F11444BC
:1018A000C1E600BF70B54FF0FF0C4CF4E06C1CEAD1
:1018B00011541DBF1CEA135594EA0C0F95EA0C0F46
:1018C00000F0DEF82C4481EA030621EA4C5123EAB9
:1018D0004C5350EA013518BF52EA033541F48011E8
:1018E00043F4801338D0A0FB02CE4FF00005E1FB9B
:1018F00002E506F00042E0FB03E54FF00006E1FBE5
:1019000003569CF0000F18BF4EF0010EA4F1FF0427
:10191000B6F5007F64F5407404D25FEA4E0E6D4167
:1019200046EB060642EAC62141EA55514FEAC52078
:1019300040EA5E504FEACE2EB4F1FD0C88BFBCF5F4
:10194000E06F1ED8BEF1004F08BF5FEA500E50F1A5
:10195000000041EB045170BD06F0004646EA01016B
:1019600040EA020081EA0301B4EB5C04C2BFD4EB9D
:101970000C0541EA045170BD41F480114FF0000E96
:10198000013C00F3AB8014F1360FDEBF002001F004
:10199000004170BDC4F10004203C35DA0C341BDC7E
:1019A00004F11404C4F1200500FA05F320FA04F050
:1019B00001FA05F240EA020001F0004221F0004184
:1019C00010EBD37021FA04F642EB06015EEA430EF7
:1019D00008BF20EAD37070BDC4F10C04C4F1200527
:1019E00000FA04F320FA05F001FA04F240EA0200DA
:1019F00001F0004110EBD37041F100015EEA430EAB
:101A000008BF20EAD37070BDC4F1200500FA05F2CA
:101A10004EEA020E20FA04F301FA05F243EA020349
:101A200021FA04F001F0004121FA04F220EA020058
:101A300000EBD3705EEA430E08BF20EAD37070BD9E
:101A400094F0000F0FD101F00046400041EB01017E
:101A500011F4801F08BF013CF7D041EA060195F060
:101A6000000F18BF704703F00046520043EB03031A
:101A700013F4801F08BF013DF7D043EA0603704707
:101A800094EA0C0F0CEA135518BF95EA0C0F0CD012
:101A900050EA410618BF52EA4306D1D181EA030158
:101AA00001F000414FF0000070BD50EA410606BF52
:101AB0001046194652EA430619D094EA0C0F02D197
:101AC00050EA013613D195EA0C0F05D152EA0336DC
:101AD0001CBF104619460AD181EA030101F00041FA
:101AE00041F0FE4141F470014FF0000070BD41F043
:101AF000FE4141F4780170BD70B54FF0FF0C4CF41D
:101B0000E06C1CEA11541DBF1CEA135594EA0C0F3B
:101B100095EA0C0F00F0A7F8A4EB050481EA030E88
:101B200052EA03354FEA013100F088804FEA03336F
:101B30004FF0805545EA131343EA12634FEA02223D
:101B400045EA111545EA10654FEA00260EF00041FE
:101B50009D4208BF964244F1FD0404F5407402D250
:101B60005B084FEA3202B61A65EB03055B084FEAE1
:101B700032024FF480104FF4002CB6EB020E75EBDE
:101B8000030E22BFB61A754640EA0C005B084FEA06
:101B90003202B6EB020E75EB030E22BFB61A754683
:101BA00040EA5C005B084FEA3202B6EB020E75EBCE
:101BB000030E22BFB61A754640EA9C005B084FEA46
:101BC0003202B6EB020E75EB030E22BFB61A754653
:101BD00040EADC0055EA060E18D04FEA051545EA42
:101BE00016754FEA06164FEAC30343EA52734FEAEB
:101BF000C2025FEA1C1CC0D111F4801F0BD141EA64
:101C000000014FF000004FF0004CB6E711F4801FC8
:101C100004BF01430020B4F1FD0C88BFBCF5E06FA8
:101C20003FF6AFAEB5EB030C04BFB6EB020C5FEAB8
:101C3000500C50F1000041EB045170BD0EF0004E0D
:101C40004EEA113114EB5C04C2BFD4EB0C0541EA3F
:101C5000045170BD41F480114FF0000E013C90E63C
:101C600045EA060E8DE60CEA135594EA0C0F08BF00
:101C700095EA0C0F3FF43BAF94EA0C0F0AD150EAFF
:101C800001347FF434AF95EA0C0F7FF425AF104692
:101C900019462CE795EA0C0F06D152EA03353FF4BA
:101CA000FDAE1046194622E750EA410618BF52EA37
:101CB00043067FF4C5AE50EA41047FF40DAF52EA0B
:101CC00043057FF4EBAE12E74FEA4102B2F1E04385
:101CD00024BFB3F5001CDCF1FE5C0DD901F0004C13
:101CE0004FEAC0024CEA5070B2F1004F40EB830063
:101CF00008BF20F00100704711F0804F21D113F18F
:101D00003872BCBF01F00040704741F480114FEAC7
:101D10005252C2F11802C2F1200C10FA0CF320FA50
:101D200002F018BF40F001004FEAC1234FEAD3236D
:101D300003FA0CFC40EA0C0023FA02F34FEA4303D7
:101D4000CCE77FEA625307D150EA01331EBF4FF060
:101D5000FE4040F44000704701F0004040F0FE407B
:101D600040F40000704700BF80F0004002E000BF78
:101D700081F0004142001FBF5FEA410392EA030F76
:101D80007FEA226C7FEA236C6AD04FEA1262D2EBC0
:101D90001363C1BFD218414048404140B8BF5B42C5
:101DA000192B88BF704710F0004F40F4000020F05E
:101DB0007F4018BF404211F0004F41F4000121F074
:101DC0007F4118BF494292EA030F3FD0A2F10102BE
:101DD00041FA03FC10EB0C00C3F1200301FA03F1FC
:101DE00000F0004302D5494260EB4000B0F5000F1F
:101DF00013D3B0F1807F06D340084FEA310102F1DE
:101E00000102FE2A51D2B1F1004F40EBC25008BF8F
:101E100020F0010040EA03007047490040EB000059
:101E200010F4000FA2F10102EDD1B0FA80FCACF188
:101E3000080CB2EB0C0200FA0CF0AABF00EBC25087
:101E400052421843BCBFD0401843704792F0000F75
:101E500081F4000106BF80F400000132013BB5E7C8
:101E60004FEA41037FEA226C18BF7FEA236C21D03E
:101E700092EA030F04D092F0000F08BF08467047A3
:101E800090EA010F1CBF0020704712F07F4F04D171
:101E9000400028BF40F00040704712F100723CBF84
:101EA00000F50000704700F0004343F0FE4040F4AE
:101EB000000070477FEA226216BF08467FEA23636C
:101EC0000146420206BF5FEA412390EA010F40F457
:101ED000800070474FF0000304E000BF10F00043A3
:101EE00048BF40425FEA000C08BF704743F096438A
:101EF00001464FF000001CE050EA010208BF7047A5
:101F00004FF000030AE000BF50EA010208BF70472B
:101F100011F0004302D5404261EB41015FEA010C40
:101F200002BF84460146002043F0B64308BFA3F138
:101F30008053A3F50003BCFA8CF2083AA3EBC2531A
:101F400010DB01FA02FC634400FA02FCC2F1200239
:101F5000BCF1004F20FA02F243EB020008BF20F070
:101F60000100704702F1200201FA02FCC2F12002D6
:101F700050EA4C0021FA02F243EB020008BF20EACB
:101F8000DC7070474FF0FF0C1CEAD0521EBF1CEAF9
:101F9000D15392EA0C0F93EA0C0F6FD01A4480EAE7
:101FA000010C400218BF5FEA41211ED04FF00063D0
:101FB00043EA501043EA5111A0FB01310CF00040FC
:101FC000B1F5000F3EBF490041EAD3715B0040EA22
:101FD000010062F17F02FD2A1DD8B3F1004F40EBF2
:101FE000C25008BF20F00100704790F0000F0CF0C5
:101FF000004C08BF49024CEA502040EA51207F3A89
:10200000C2BFD2F1FF0340EAC250704740F4000063
:102010004FF00003013A5DDC12F1190FDCBF00F054
:1020200000407047C2F10002410021FA02F1C2F102
:10203000200200FA02FC5FEA310040F1000053EA9E
:102040004C0308BF20EADC70704792F0000F00F0EC
:10205000004C02BF400010F4000F013AF9D040EAF2
:102060000C0093F0000F01F0004C02BF490011F486
:10207000000F013BF9D041EA0C018FE70CEAD15384
:1020800092EA0C0F18BF93EA0C0F0AD030F0004C04
:1020900018BF31F0004CD8D180EA010000F00040B8
:1020A000704790F0000F17BF90F0004F084691F076
:1020B000000F91F0004F14D092EA0C0F01D14202B0
:1020C0000FD193EA0C0F03D14B0218BF084608D179
:1020D00080EA010000F0004040F0FE4040F40000C3
:1020E000704740F0FE4040F4400070474FF0FF0C56
:1020F0001CEAD0521EBF1CEAD15392EA0C0F93EA9D
:102100000C0F69D0A2EB030280EA010C49024FEAEE
:10211000402037D04FF0805343EA111143EA1013A7
:102120000CF000408B4238BF5B0042F17D024FF45F
:10213000000C8B4224BF5B1A40EA0C00B3EB510F3A
:1021400024BFA3EB510340EA5C00B3EB910F24BF23
:10215000A3EB910340EA9C00B3EBD10F24BFA3EBA8
:10216000D10340EADC001B0118BF5FEA1C1CE0D170
:10217000FD2A3FF650AF8B4240EBC25008BF20F023
:10218000010070470CF0004C4CEA50207F32C2BF77
:10219000D2F1FF0340EAC250704740F400004FF014
:1021A0000003013A37E792F0000F00F0004C02BF45
:1021B000400010F4000F013AF9D040EA0C0093F00F
:1021C000000F01F0004C02BF490011F4000F013B69
:1021D000F9D041EA0C0195E70CEAD15392EA0C0FD1
:1021E00008D142027FF47DAF93EA0C0F7FF470AF09
:1021F000084676E793EA0C0F04D14B023FF44CAF4C
:1022000008466EE730F0004C18BF31F0004CCAD1E0
:1022100030F000427FF45CAF31F000437FF43CAF1C
:102220005FE700BF4FF0FF3C06E000BF4FF0010C3E
:1022300002E000BF4FF0010C4DF804CD4FEA400220
:102240004FEA41037FEA226C18BF7FEA236C11D06A
:1022500001B052EA530C18BF90EA010F58BFB2EB1D
:10226000030088BFC81738BF6FEAE17018BF40F09D
:10227000010070477FEA226C02D15FEA402C05D151
:102280007FEA236CE4D15FEA412CE1D05DF8040BD6
:10229000704700BF844608466146FFE70FB5FFF769
:1022A000C9FF002848BF10F1000F0FBD4DF808ED21
:1022B000FFF7F4FF0CBF012000205DF808FB00BF12
:1022C0004DF808EDFFF7EAFF34BF012000205DF86C
:1022D00008FB00BF4DF808EDFFF7E0FF94BF0120B9
:1022E00000205DF808FB00BF4DF808EDFFF7D2FFB6
:1022F00094BF012000205DF808FB00BF4DF808EDF9
:10230000FFF7C8FF34BF012000205DF808FB00BFC5
:102310004FEA4002B2F1FE4F0FD34FF09E03B3EBF2
:1023200012620DD94FEA002343F0004310F0004F32
:1023300023FA02F018BF404270474FF00000704788
:1023400012F1610F01D1420205D110F0004008BF27
:102350006FF0004070474FF000007047014B186865
:10236000704700BF70040020024B0146186800F05F
:1023700003B800BF700400202DE9F04F01F10B05F8
:10238000162D83B0064627D935F0070527D4A94274
:1023900025D8304600F08CFAB5F5FC7F26D2C14F27
:1023A0004FEAD50C07EBCC03DC689C4200F0D281ED
:1023B0006368E268A16823F00303234430465D6844
:1023C000CA6045F0010591605D6000F073FA083461
:1023D000204603B0BDE8F08F1025A942D9D90024CA
:1023E0000C232046336003B0BDE8F08F5FEA552C24
:1023F00000F08A80BCF1040F00F260814FEA951C66
:102400000CF1380C4FEA4C01A64F07EB8101CC6868
:10241000A14205D10CE0002B7ADAE468A14207D092
:10242000626822F00302531B0F2BF4DD0CF1FF3C1A
:102430000CF1010C9B4B3C6903F1080E744500F054
:102440007E81616821F003014A1B0F2A00F3648139
:10245000002AC3F814E0C3F810E06ADAB1F5007F8F
:1024600080F03A81C90803EBC1004FEAA1085A681D
:102470008168A1604FF0010909FA08F848EA0202F0
:10248000E0605A608460CC604FEAAC030120984061
:1024900090425BD8024206D12CF0030C400002426D
:1024A0000CF1040CFAD007EBCC084446E146E36893
:1024B0009C4207D145E1002A80F25681DB689C42AC
:1024C00000F03F81596821F003014A1B0F2AF2DD19
:1024D0001C46D3F80CC054F8088F591945F001096F
:1024E00042F00105C3F804903046C8F80CC0CCF89F
:1024F000088079613961C1F80CE0C1F808E04D60ED
:102500008A5000F0D7F963E77E214FF03F0C7BE75C
:102510002244E3685068A16840F00105CB60304672
:102520009960556000F0C6F90834204603B0BDE854
:10253000F08F214430464B6843F001034B6000F0BC
:10254000B9F90834204603B0BDE8F08FBC68636871
:1025500023F00309A94504D3C5EB09030F2B00F3AE
:102560009180514B514A19681368013305EB010AF8
:1025700004EB090B00F061810AF5805A0AF10F0A99
:102580002AF47F6A2AF00F0A304651460192FEF77C
:1025900077FDB0F1FF3F8046019A00F0008183454E
:1025A00000F2FA80DFF810C1DCF80030C345534474
:1025B000CCF8003000F04A8112683C4901321BBF60
:1025C000CBEB080B5B44C1F80080CCF8003018F06E
:1025D000070300F01381C3F10802C3F58053904450
:1025E0000833C244CAF30B0ACAEB030A5146304609
:1025F000CDF804C0FEF744FD431CDDF804C000F034
:102600003581C8EB0002524442F00102DCF8003090
:10261000C7F808805344BC42C8F80420CCF8003006
:10262000DFF894A015D0B9F10F0F40F2EA8061688D
:10263000A9F10C0222F0070201F0010EA1180520F9
:1026400042EA0E0E0F2AC4F804E04860886000F2E7
:102650001181174ABC6811688B4288BF1360154A04
:1026600011688B4288BF1360626822F003029542B2
:10267000C5EB020301D80F2B04DC304600F01AF939
:102680000024A5E6621943F0010345F001056560E9
:102690003046BA60536000F00DF90834204603B0AC
:1026A000BDE8F08F74040020C408002080080020DA
:1026B000C0080020BC080020C8080020BCF1140F8E
:1026C00061D9BCF1540F00F28F804FEA153C0CF138
:1026D0006E0C4FEA4C0197E64B0A042B58D9142B89
:1026E00000F2AE8003F15B02500007EB8000DFF8E0
:1026F000BC818368834200F08A805A6822F003021A
:10270000914202D29B689842F7D1D9687A68E16019
:10271000A3608C60DC60B7E6611942F0010745F008
:1027200001056560304659611961C1F80CE0C1F8D6
:1027300008E04F608A50083400F0BCF848E65A6858
:10274000A2E609F1010919F0030F04F108047FF46E
:10275000AEAE2DE004F108036469A34208BF0CF19A
:10276000020C3FF467AE23E619441C464868DB6858
:1027700054F8082F40F001054D603046D3609A6050
:1027800000F098F824E60CF15B0C4FEA4C013BE6B4
:102790008A0938325000A8E7BC423FF403AFBC6856
:1027A000626822F0030262E7D8F8008098457BD186
:1027B0001CF0030FA8F108030CF1FF3CF4D17B6877
:1027C00023EA00037B60400098423FF6BFAE00283A
:1027D0003FF4BCAE0342CC467FF465AE40000342FA
:1027E0000CF1040CFAD05EE6BCF5AA7F1AD84FEAC9
:1027F000D53C0CF1770C4FEA4C0105E64FF48053C1
:10280000EFE60123C8F80430444600222FE7911078
:102810000120D8F8042000FA01F10A43C8F8042086
:10282000194674E740F254539C451BD84FEA954C27
:102830000CF17C0C4FEA4C01E6E50AF1100AA3E624
:10284000542B1FD80A0B6E3250004EE7CBF30B010E
:1028500000297FF4B1AE0AEB0901BA6841F0010129
:102860005160F6E6FC214FF07E0CCDE501224FF0E1
:10287000000ACBE604F10801304600F06BF8DAF804
:102880000030E6E6B3F5AA7F03D8CA0B77325000D2
:102890002BE740F25452934203D88A0C7C3250000A
:1028A00023E7FC207E2220E77B688CE7740400206D
:1028B000704700BF704700BFF8B5234D0F46044670
:1028C000FFF7F6FFAB685E6826F00306F11B01F622
:1028D000EF7121F47F6121F00F01A1F58057B7F569
:1028E000805F07DB20460021FEF7CAFBAB6833445C
:1028F000984204D02046FFF7DDFF0020F8BD2046B7
:102900007942FEF7BDFB01300DD0104BAA68196863
:10291000F61B46F001062046C91B56601960FFF7FA
:10292000C9FF0120F8BD20460021FEF7A9FBAB68D6
:10293000C21A0F2ADEDD064D04492D6842F001025D
:10294000401B5A600860D5E774040020C8080020C6
:10295000800800202DE9F0410D460646002955D09B
:10296000FFF7A6FF55F8041CDFF874C121F001033E
:10297000A5F10804E218DCF808005768904227F037
:10298000030769D011F00101576032D00021D0193E
:102990004068C00706D43B44906800294ED0D268F6
:1029A000C260906043F001026260E350E1B9B3F5A8
:1029B000007F2DD35A0A042A6AD89809383041007A
:1029C0000CEB810C4649DCF80820624566D0516862
:1029D00021F003018B4202D292689445F7D1D3686B
:1029E000E360A2609C60D4603046BDE8F041FFF730
:1029F00061BF55F8085C641B0CF10808A0684045ED
:102A00002B4443D0E568C560A860C0E7BDE8F0810D
:102A1000DB080CEBC3020125DCF804009168A1601F
:102A20009B1005FA03F31843E260CCF804009460AD
:102A30003046CC60BDE8F041FFF73CBF294DA842CD
:102A4000ADD143F00102CCF81440CCF81040E06066
:102A5000A0606260E350C7E71F44CB0707D455F876
:102A6000083CE41A1F44A268E368D3609A601E4BD6
:102A70001B6847F001029F426260CCF80840B3D364
:102A80001A4B30461968FFF717FFADE701217EE7C3
:102A9000142A0CD802F15B00410091E74B688010CA
:102AA000012505FA00F003434B60134698E7542ACA
:102AB00003D8180B6E30410082E7B2F5AA7F03D825
:102AC000D80B773041007BE740F254518A4203D85B
:102AD000980C7C30410073E7FC217E2070E700BF3A
:102AE000740400207C0400207C080020C40800201E
:102AF00000401454574954414D210000636F756ED6
:0C2B00007465722100000000430000001A
:102B0C00FFFF0000FFFF000000C0120001000000EA
:102B1C0000002000B86002400C3C00402F00000078
:102B2C0000000028000000240000402000000022CB
:102B3C0000000021007A030A0000000000000000E1
:102B4C0001020304060708090000000034030020FA
:102B5C009C03002004040020000000000000000082
:102B6C000000000000000000000000000000000059
:102B7C00000000000000000000000000082B00080E
:102B8C000000000000000000000000000000000039
:102B9C000000000000000000000000000000000029
:102BAC000000000000000000000000000000000019
:102BBC000000000000000000000000000000000009
:102BCC0000000000000000000000000000000000F9
:102BDC0000000000000000000000000000000000E9
:102BEC0000000000000000000000000000000000D9
:102BFC0001000000000000000E33CDAB34126DE676
:102C0C00ECDE05000B0000000000000000000000DE
:102C1C0000000000000000000000000000000000A8
:102C2C000000000000000000000000000000000098
:102C3C000000000000000000000000000000000088
:102C4C000000000000000000000000000000000078
:102F7C004800002000000000000000007404002045
:102F8C00740400207C0400207C04002084040020B5
:102F9C00840400208C0400208C0400209404002065
:102FAC00940400209C0400209C040020A404002015
:102FBC00A4040020AC040020AC040020B4040020C5
:102FCC00B4040020BC040020BC040020C404002075
:102FDC00C4040020CC040020CC040020D404002025
:102FEC00D4040020DC040020DC040020E4040020D5
:102FFC00E4040020EC040020EC040020F404002085
:10300C00F4040020FC040020FC0400200405002033
:10301C00040500200C0500200C05002014050020E0
:10302C00140500201C0500201C0500202405002090
:10303C00240500202C0500202C0500203405002040
:10304C00340500203C0500203C05002044050020F0
:10305C00440500204C0500204C05002054050020A0
:10306C00540500205C0500205C0500206405002050
:10307C00640500206C0500206C0500207405002000
:10308C00740500207C0500207C05002084050020B0
:10309C00840500208C0500208C0500209405002060
:1030AC00940500209C0500209C050020A405002010
:1030BC00A4050020AC050020AC050020B4050020C0
:1030CC00B4050020BC050020BC050020C405002070
:1030DC00C4050020CC050020CC050020D405002020
:1030EC00D4050020DC050020DC050020E4050020D0
:1030FC00E4050020EC050020EC050020F405002080
:10310C00F4050020FC050020FC050020040600202E
:10311C00040600200C0600200C06002014060020DB
:10312C00140600201C0600201C060020240600208B
:10313C00240600202C0600202C060020340600203B
:10314C00340600203C0600203C06002044060020EB
:10315C00440600204C0600204C060020540600209B
:10316C00540600205C0600205C060020640600204B
:10317C00640600206C0600206C06002074060020FB
:10318C00740600207C0600207C06002084060020AB
:10319C00840600208C0600208C060020940600205B
:1031AC00940600209C0600209C060020A40600200B
:1031BC00A4060020AC060020AC060020B4060020BB
:1031CC00B4060020BC060020BC060020C40600206B
:1031DC00C4060020CC060020CC060020D40600201B
:1031EC00D4060020DC060020DC060020E4060020CB
:1031FC00E4060020EC060020EC060020F40600207B
:10320C00F4060020FC060020FC0600200407002029
:10321C00040700200C0700200C07002014070020D6
:10322C00140700201C0700201C0700202407002086
:10323C00240700202C0700202C0700203407002036
:10324C00340700203C0700203C07002044070020E6
:10325C00440700204C0700204C0700205407002096
:10326C00540700205C0700205C0700206407002046
:10327C00640700206C0700206C07002074070020F6
:10328C00740700207C0700207C07002084070020A6
:10329C00840700208C0700208C0700209407002056
:1032AC00940700209C0700209C070020A407002006
:1032BC00A4070020AC070020AC070020B4070020B6
:1032CC00B4070020BC070020BC070020C407002066
:1032DC00C4070020CC070020CC070020D407002016
:1032EC00D4070020DC070020DC070020E4070020C6
:1032FC00E4070020EC070020EC070020F407002076
:10330C00F4070020FC070020FC0700200408002024
:10331C00040800200C0800200C08002014080020D1
:10332C00140800201C0800201C0800202408002081
:10333C00240800202C0800202C0800203408002031
:10334C00340800203C0800203C08002044080020E1
:10335C00440800204C0800204C0800205408002091
:10336C00540800205C0800205C0800206408002041
:10337C00640800206C0800206C080020000002008B
:04338C00FFFFFFFF41
:0400000508000000EF
:00000001FF
